{
  "_format": "hh-sol-artifact-1",
  "contractName": "TaskProject",
  "sourceName": "contracts/TaskProject.sol",
  "abi": [
    {
      "anonymous": false,
      "inputs": [
        {
          "indexed": false,
          "internalType": "uint256",
          "name": "taskId",
          "type": "uint256"
        },
        {
          "indexed": false,
          "internalType": "address",
          "name": "recipient",
          "type": "address"
        },
        {
          "indexed": false,
          "internalType": "uint256",
          "name": "amount",
          "type": "uint256"
        }
      ],
      "name": "PaymentSent",
      "type": "event"
    },
    {
      "anonymous": false,
      "inputs": [
        {
          "indexed": false,
          "internalType": "address",
          "name": "owner",
          "type": "address"
        },
        {
          "indexed": false,
          "internalType": "uint256",
          "name": "subAccountId",
          "type": "uint256"
        }
      ],
      "name": "SubAccountCreated",
      "type": "event"
    },
    {
      "anonymous": false,
      "inputs": [
        {
          "indexed": false,
          "internalType": "uint256",
          "name": "taskId",
          "type": "uint256"
        },
        {
          "indexed": false,
          "internalType": "address",
          "name": "assignee",
          "type": "address"
        }
      ],
      "name": "TaskAssigned",
      "type": "event"
    },
    {
      "anonymous": false,
      "inputs": [
        {
          "indexed": false,
          "internalType": "uint256",
          "name": "taskId",
          "type": "uint256"
        }
      ],
      "name": "TaskCompleted",
      "type": "event"
    },
    {
      "anonymous": false,
      "inputs": [
        {
          "indexed": false,
          "internalType": "uint256",
          "name": "taskId",
          "type": "uint256"
        },
        {
          "indexed": false,
          "internalType": "string",
          "name": "description",
          "type": "string"
        },
        {
          "indexed": false,
          "internalType": "uint256",
          "name": "payment",
          "type": "uint256"
        }
      ],
      "name": "TaskCreated",
      "type": "event"
    },
    {
      "inputs": [
        {
          "internalType": "uint256",
          "name": "_taskId",
          "type": "uint256"
        }
      ],
      "name": "assignTask",
      "outputs": [],
      "stateMutability": "nonpayable",
      "type": "function"
    },
    {
      "inputs": [
        {
          "internalType": "uint256",
          "name": "_taskId",
          "type": "uint256"
        },
        {
          "internalType": "uint256",
          "name": "_subAccountId",
          "type": "uint256"
        }
      ],
      "name": "completeTask",
      "outputs": [],
      "stateMutability": "nonpayable",
      "type": "function"
    },
    {
      "inputs": [],
      "name": "createSubAccount",
      "outputs": [],
      "stateMutability": "nonpayable",
      "type": "function"
    },
    {
      "inputs": [
        {
          "internalType": "string",
          "name": "_description",
          "type": "string"
        }
      ],
      "name": "createTask",
      "outputs": [],
      "stateMutability": "payable",
      "type": "function"
    },
    {
      "inputs": [
        {
          "internalType": "address",
          "name": "_user",
          "type": "address"
        },
        {
          "internalType": "uint256",
          "name": "_subAccountId",
          "type": "uint256"
        }
      ],
      "name": "getSubAccountBalance",
      "outputs": [
        {
          "internalType": "uint256",
          "name": "",
          "type": "uint256"
        }
      ],
      "stateMutability": "view",
      "type": "function"
    },
    {
      "inputs": [
        {
          "internalType": "uint256",
          "name": "_taskId",
          "type": "uint256"
        }
      ],
      "name": "getTask",
      "outputs": [
        {
          "internalType": "string",
          "name": "description",
          "type": "string"
        },
        {
          "internalType": "uint256",
          "name": "payment",
          "type": "uint256"
        },
        {
          "internalType": "address",
          "name": "creator",
          "type": "address"
        },
        {
          "internalType": "address",
          "name": "assignee",
          "type": "address"
        },
        {
          "internalType": "bool",
          "name": "completed",
          "type": "bool"
        },
        {
          "internalType": "bool",
          "name": "paid",
          "type": "bool"
        }
      ],
      "stateMutability": "view",
      "type": "function"
    },
    {
      "inputs": [
        {
          "internalType": "address",
          "name": "_user",
          "type": "address"
        }
      ],
      "name": "getUserTasks",
      "outputs": [
        {
          "internalType": "uint256[]",
          "name": "",
          "type": "uint256[]"
        }
      ],
      "stateMutability": "view",
      "type": "function"
    },
    {
      "inputs": [
        {
          "internalType": "address",
          "name": "_user",
          "type": "address"
        }
      ],
      "name": "hasUserTasks",
      "outputs": [
        {
          "internalType": "bool",
          "name": "",
          "type": "bool"
        }
      ],
      "stateMutability": "view",
      "type": "function"
    },
    {
      "inputs": [
        {
          "internalType": "uint256",
          "name": "_taskId",
          "type": "uint256"
        }
      ],
      "name": "releasePayment",
      "outputs": [],
      "stateMutability": "nonpayable",
      "type": "function"
    },
    {
      "inputs": [
        {
          "internalType": "address",
          "name": "",
          "type": "address"
        }
      ],
      "name": "subAccountCount",
      "outputs": [
        {
          "internalType": "uint256",
          "name": "",
          "type": "uint256"
        }
      ],
      "stateMutability": "view",
      "type": "function"
    },
    {
      "inputs": [
        {
          "internalType": "address",
          "name": "",
          "type": "address"
        },
        {
          "internalType": "uint256",
          "name": "",
          "type": "uint256"
        }
      ],
      "name": "subAccounts",
      "outputs": [
        {
          "internalType": "uint256",
          "name": "balance",
          "type": "uint256"
        },
        {
          "internalType": "bool",
          "name": "exists",
          "type": "bool"
        }
      ],
      "stateMutability": "view",
      "type": "function"
    },
    {
      "inputs": [
        {
          "internalType": "uint256",
          "name": "",
          "type": "uint256"
        }
      ],
      "name": "tasks",
      "outputs": [
        {
          "internalType": "string",
          "name": "description",
          "type": "string"
        },
        {
          "internalType": "uint256",
          "name": "payment",
          "type": "uint256"
        },
        {
          "internalType": "address",
          "name": "creator",
          "type": "address"
        },
        {
          "internalType": "address",
          "name": "assignee",
          "type": "address"
        },
        {
          "internalType": "bool",
          "name": "completed",
          "type": "bool"
        },
        {
          "internalType": "bool",
          "name": "paid",
          "type": "bool"
        }
      ],
      "stateMutability": "view",
      "type": "function"
    },
    {
      "inputs": [
        {
          "internalType": "address",
          "name": "",
          "type": "address"
        },
        {
          "internalType": "uint256",
          "name": "",
          "type": "uint256"
        }
      ],
      "name": "userTasks",
      "outputs": [
        {
          "internalType": "uint256",
          "name": "",
          "type": "uint256"
        }
      ],
      "stateMutability": "view",
      "type": "function"
    },
    {
      "inputs": [
        {
          "internalType": "uint256",
          "name": "_subAccountId",
          "type": "uint256"
        },
        {
          "internalType": "uint256",
          "name": "_amount",
          "type": "uint256"
        }
      ],
      "name": "withdrawFromSubAccount",
      "outputs": [],
      "stateMutability": "nonpayable",
      "type": "function"
    }
  ],
  "bytecode": "0x6080604052348015600f57600080fd5b506125268061001f6000396000f3fe6080604052600436106100dd5760003560e01c80638d9776721161007f578063b857318511610059578063b8573185146102f2578063d0a385951461031b578063da5ea19314610358578063ffb5a7cf1461036f576100dd565b80638d9776721461024a57806395d576601461028c578063ad38f43d146102c9576100dd565b80631d65e77e116100bb5780631d65e77e1461016457806334d573f3146101a657806366873a55146101e457806388685cd914610221576100dd565b8063108c8ae4146100e2578063111002aa1461010b5780631505cf6914610127575b600080fd5b3480156100ee57600080fd5b50610109600480360381019061010491906116b9565b6103ac565b005b6101256004803603810190610120919061183f565b6106c1565b005b34801561013357600080fd5b5061014e600480360381019061014991906118e6565b61092d565b60405161015b9190611922565b60405180910390f35b34801561017057600080fd5b5061018b6004803603810190610186919061193d565b610945565b60405161019d96959493929190611a13565b60405180910390f35b3480156101b257600080fd5b506101cd60048036038101906101c89190611a7b565b610ad3565b6040516101db929190611abb565b60405180910390f35b3480156101f057600080fd5b5061020b60048036038101906102069190611a7b565b610b11565b6040516102189190611922565b60405180910390f35b34801561022d57600080fd5b506102486004803603810190610243919061193d565b610b42565b005b34801561025657600080fd5b50610271600480360381019061026c919061193d565b610e07565b60405161028396959493929190611a13565b60405180910390f35b34801561029857600080fd5b506102b360048036038101906102ae91906118e6565b610f35565b6040516102c09190611ba2565b60405180910390f35b3480156102d557600080fd5b506102f060048036038101906102eb91906116b9565b610fcc565b005b3480156102fe57600080fd5b506103196004803603810190610314919061193d565b6111b7565b005b34801561032757600080fd5b50610342600480360381019061033d91906118e6565b6113b8565b60405161034f9190611bc4565b60405180910390f35b34801561036457600080fd5b5061036d611406565b005b34801561037b57600080fd5b5061039660048036038101906103919190611a7b565b611571565b6040516103a39190611922565b60405180910390f35b60008054905082106103f3576040517f08c379a00000000000000000000000000000000000000000000000000000000081526004016103ea90611c2b565b60405180910390fd5b3373ffffffffffffffffffffffffffffffffffffffff166000838154811061041e5761041d611c4b565b5b906000526020600020906004020160030160009054906101000a900473ffffffffffffffffffffffffffffffffffffffff1673ffffffffffffffffffffffffffffffffffffffff16146104a6576040517f08c379a000000000000000000000000000000000000000000000000000000000815260040161049d90611cec565b60405180910390fd5b600082815481106104ba576104b9611c4b565b5b906000526020600020906004020160030160149054906101000a900460ff1615610519576040517f08c379a000000000000000000000000000000000000000000000000000000000815260040161051090611d58565b60405180910390fd5b600260003373ffffffffffffffffffffffffffffffffffffffff1673ffffffffffffffffffffffffffffffffffffffff168152602001908152602001600020600082815260200190815260200160002060010160009054906101000a900460ff166105b9576040517f08c379a00000000000000000000000000000000000000000000000000000000081526004016105b090611dc4565b60405180910390fd5b6001600083815481106105cf576105ce611c4b565b5b906000526020600020906004020160030160146101000a81548160ff0219169083151502179055506000828154811061060b5761060a611c4b565b5b906000526020600020906004020160010154600260003373ffffffffffffffffffffffffffffffffffffffff1673ffffffffffffffffffffffffffffffffffffffff1681526020019081526020016000206000838152602001908152602001600020600001600082825461067f9190611e13565b925050819055507fc1fa7142cfb933d0855114a3bffde296944c30b727f297c14d0db4d553d3a5c7826040516106b59190611922565b60405180910390a15050565b60003411610704576040517f08c379a00000000000000000000000000000000000000000000000000000000081526004016106fb90611e93565b60405180910390fd5b60008080549050905060006040518060c001604052808481526020013481526020013373ffffffffffffffffffffffffffffffffffffffff168152602001600073ffffffffffffffffffffffffffffffffffffffff16815260200160001515815260200160001515815250908060018154018082558091505060019003906000526020600020906004020160009091909190915060008201518160000190816107ad91906120bf565b506020820151816001015560408201518160020160006101000a81548173ffffffffffffffffffffffffffffffffffffffff021916908373ffffffffffffffffffffffffffffffffffffffff16021790555060608201518160030160006101000a81548173ffffffffffffffffffffffffffffffffffffffff021916908373ffffffffffffffffffffffffffffffffffffffff16021790555060808201518160030160146101000a81548160ff02191690831515021790555060a08201518160030160156101000a81548160ff0219169083151502179055505050600160003373ffffffffffffffffffffffffffffffffffffffff1673ffffffffffffffffffffffffffffffffffffffff1681526020019081526020016000208190806001815401808255809150506001900390600052602060002001600090919091909150557f146b4b2e55f6b6a4a8ac8239494150cd5f96b163e2d019440f369714f4a31eb881833460405161092193929190612191565b60405180910390a15050565b60036020528060005260406000206000915090505481565b6060600080600080600080805490508710610995576040517f08c379a000000000000000000000000000000000000000000000000000000000815260040161098c90611c2b565b60405180910390fd5b60008088815481106109aa576109a9611c4b565b5b906000526020600020906004020190508060000181600101548260020160009054906101000a900473ffffffffffffffffffffffffffffffffffffffff168360030160009054906101000a900473ffffffffffffffffffffffffffffffffffffffff168460030160149054906101000a900460ff168560030160159054906101000a900460ff16858054610a3d90611ee2565b80601f0160208091040260200160405190810160405280929190818152602001828054610a6990611ee2565b8015610ab65780601f10610a8b57610100808354040283529160200191610ab6565b820191906000526020600020905b815481529060010190602001808311610a9957829003601f168201915b505050505095509650965096509650965096505091939550919395565b6002602052816000526040600020602052806000526040600020600091509150508060000154908060010160009054906101000a900460ff16905082565b60016020528160005260406000208181548110610b2d57600080fd5b90600052602060002001600091509150505481565b6000805490508110610b89576040517f08c379a0000000000000000000000000000000000000000000000000000000008152600401610b8090611c2b565b60405180910390fd5b3373ffffffffffffffffffffffffffffffffffffffff1660008281548110610bb457610bb3611c4b565b5b906000526020600020906004020160020160009054906101000a900473ffffffffffffffffffffffffffffffffffffffff1673ffffffffffffffffffffffffffffffffffffffff1614610c3c576040517f08c379a0000000000000000000000000000000000000000000000000000000008152600401610c339061221b565b60405180910390fd5b60008181548110610c5057610c4f611c4b565b5b906000526020600020906004020160030160149054906101000a900460ff16610cae576040517f08c379a0000000000000000000000000000000000000000000000000000000008152600401610ca590612287565b60405180910390fd5b60008181548110610cc257610cc1611c4b565b5b906000526020600020906004020160030160159054906101000a900460ff1615610d21576040517f08c379a0000000000000000000000000000000000000000000000000000000008152600401610d18906122f3565b60405180910390fd5b600160008281548110610d3757610d36611c4b565b5b906000526020600020906004020160030160156101000a81548160ff0219169083151502179055507f952e5301753c5bc62cbfbdbe1b6553cd54796e01da9cfeaaf29921d6ede1a7268160008381548110610d9557610d94611c4b565b5b906000526020600020906004020160030160009054906101000a900473ffffffffffffffffffffffffffffffffffffffff1660008481548110610ddb57610dda611c4b565b5b906000526020600020906004020160010154604051610dfc93929190612313565b60405180910390a150565b60008181548110610e1757600080fd5b9060005260206000209060040201600091509050806000018054610e3a90611ee2565b80601f0160208091040260200160405190810160405280929190818152602001828054610e6690611ee2565b8015610eb35780601f10610e8857610100808354040283529160200191610eb3565b820191906000526020600020905b815481529060010190602001808311610e9657829003601f168201915b5050505050908060010154908060020160009054906101000a900473ffffffffffffffffffffffffffffffffffffffff16908060030160009054906101000a900473ffffffffffffffffffffffffffffffffffffffff16908060030160149054906101000a900460ff16908060030160159054906101000a900460ff16905086565b6060600160008373ffffffffffffffffffffffffffffffffffffffff1673ffffffffffffffffffffffffffffffffffffffff168152602001908152602001600020805480602002602001604051908101604052809291908181526020018280548015610fc057602002820191906000526020600020905b815481526020019060010190808311610fac575b50505050509050919050565b600260003373ffffffffffffffffffffffffffffffffffffffff1673ffffffffffffffffffffffffffffffffffffffff168152602001908152602001600020600083815260200190815260200160002060010160009054906101000a900460ff1661106c576040517f08c379a000000000000000000000000000000000000000000000000000000000815260040161106390611dc4565b60405180910390fd5b80600260003373ffffffffffffffffffffffffffffffffffffffff1673ffffffffffffffffffffffffffffffffffffffff1681526020019081526020016000206000848152602001908152602001600020600001541015611102576040517f08c379a00000000000000000000000000000000000000000000000000000000081526004016110f990612396565b60405180910390fd5b80600260003373ffffffffffffffffffffffffffffffffffffffff1673ffffffffffffffffffffffffffffffffffffffff1681526020019081526020016000206000848152602001908152602001600020600001600082825461116591906123b6565b925050819055503373ffffffffffffffffffffffffffffffffffffffff166108fc829081150290604051600060405180830381858888f193505050501580156111b2573d6000803e3d6000fd5b505050565b60008054905081106111fe576040517f08c379a00000000000000000000000000000000000000000000000000000000081526004016111f590611c2b565b60405180910390fd5b600073ffffffffffffffffffffffffffffffffffffffff166000828154811061122a57611229611c4b565b5b906000526020600020906004020160030160009054906101000a900473ffffffffffffffffffffffffffffffffffffffff1673ffffffffffffffffffffffffffffffffffffffff16146112b2576040517f08c379a00000000000000000000000000000000000000000000000000000000081526004016112a990612436565b60405180910390fd5b33600082815481106112c7576112c6611c4b565b5b906000526020600020906004020160030160006101000a81548173ffffffffffffffffffffffffffffffffffffffff021916908373ffffffffffffffffffffffffffffffffffffffff160217905550600160003373ffffffffffffffffffffffffffffffffffffffff1673ffffffffffffffffffffffffffffffffffffffff1681526020019081526020016000208190806001815401808255809150506001900390600052602060002001600090919091909150557f52476d55ecef5cf13caa64038f297fe6bbf865d9584a98b8722a15a6d5db128f81336040516113ad929190612456565b60405180910390a150565b600080600160008473ffffffffffffffffffffffffffffffffffffffff1673ffffffffffffffffffffffffffffffffffffffff16815260200190815260200160002080549050119050919050565b6000600360003373ffffffffffffffffffffffffffffffffffffffff1673ffffffffffffffffffffffffffffffffffffffff16815260200190815260200160002054905060405180604001604052806000815260200160011515815250600260003373ffffffffffffffffffffffffffffffffffffffff1673ffffffffffffffffffffffffffffffffffffffff16815260200190815260200160002060008381526020019081526020016000206000820151816000015560208201518160010160006101000a81548160ff021916908315150217905550905050600360003373ffffffffffffffffffffffffffffffffffffffff1673ffffffffffffffffffffffffffffffffffffffff16815260200190815260200160002060008154809291906115309061247f565b91905055507f0de98b46b332fe9ded196bfa6bb79d40f83cf505dad3743d6bdf3f9d05e9b71d33826040516115669291906124c7565b60405180910390a150565b6000600260008473ffffffffffffffffffffffffffffffffffffffff1673ffffffffffffffffffffffffffffffffffffffff168152602001908152602001600020600083815260200190815260200160002060010160009054906101000a900460ff16611613576040517f08c379a000000000000000000000000000000000000000000000000000000000815260040161160a90611dc4565b60405180910390fd5b600260008473ffffffffffffffffffffffffffffffffffffffff1673ffffffffffffffffffffffffffffffffffffffff168152602001908152602001600020600083815260200190815260200160002060000154905092915050565b6000604051905090565b600080fd5b600080fd5b6000819050919050565b61169681611683565b81146116a157600080fd5b50565b6000813590506116b38161168d565b92915050565b600080604083850312156116d0576116cf611679565b5b60006116de858286016116a4565b92505060206116ef858286016116a4565b9150509250929050565b600080fd5b600080fd5b6000601f19601f8301169050919050565b7f4e487b7100000000000000000000000000000000000000000000000000000000600052604160045260246000fd5b61174c82611703565b810181811067ffffffffffffffff8211171561176b5761176a611714565b5b80604052505050565b600061177e61166f565b905061178a8282611743565b919050565b600067ffffffffffffffff8211156117aa576117a9611714565b5b6117b382611703565b9050602081019050919050565b82818337600083830152505050565b60006117e26117dd8461178f565b611774565b9050828152602081018484840111156117fe576117fd6116fe565b5b6118098482856117c0565b509392505050565b600082601f830112611826576118256116f9565b5b81356118368482602086016117cf565b91505092915050565b60006020828403121561185557611854611679565b5b600082013567ffffffffffffffff8111156118735761187261167e565b5b61187f84828501611811565b91505092915050565b600073ffffffffffffffffffffffffffffffffffffffff82169050919050565b60006118b382611888565b9050919050565b6118c3816118a8565b81146118ce57600080fd5b50565b6000813590506118e0816118ba565b92915050565b6000602082840312156118fc576118fb611679565b5b600061190a848285016118d1565b91505092915050565b61191c81611683565b82525050565b60006020820190506119376000830184611913565b92915050565b60006020828403121561195357611952611679565b5b6000611961848285016116a4565b91505092915050565b600081519050919050565b600082825260208201905092915050565b60005b838110156119a4578082015181840152602081019050611989565b60008484015250505050565b60006119bb8261196a565b6119c58185611975565b93506119d5818560208601611986565b6119de81611703565b840191505092915050565b6119f2816118a8565b82525050565b60008115159050919050565b611a0d816119f8565b82525050565b600060c0820190508181036000830152611a2d81896119b0565b9050611a3c6020830188611913565b611a4960408301876119e9565b611a5660608301866119e9565b611a636080830185611a04565b611a7060a0830184611a04565b979650505050505050565b60008060408385031215611a9257611a91611679565b5b6000611aa0858286016118d1565b9250506020611ab1858286016116a4565b9150509250929050565b6000604082019050611ad06000830185611913565b611add6020830184611a04565b9392505050565b600081519050919050565b600082825260208201905092915050565b6000819050602082019050919050565b611b1981611683565b82525050565b6000611b2b8383611b10565b60208301905092915050565b6000602082019050919050565b6000611b4f82611ae4565b611b598185611aef565b9350611b6483611b00565b8060005b83811015611b95578151611b7c8882611b1f565b9750611b8783611b37565b925050600181019050611b68565b5085935050505092915050565b60006020820190508181036000830152611bbc8184611b44565b905092915050565b6000602082019050611bd96000830184611a04565b92915050565b7f5461736b20646f6573206e6f7420657869737400000000000000000000000000600082015250565b6000611c15601383611975565b9150611c2082611bdf565b602082019050919050565b60006020820190508181036000830152611c4481611c08565b9050919050565b7f4e487b7100000000000000000000000000000000000000000000000000000000600052603260045260246000fd5b7f4f6e6c792061737369676e65652063616e20636f6d706c65746520746865207460008201527f61736b0000000000000000000000000000000000000000000000000000000000602082015250565b6000611cd6602383611975565b9150611ce182611c7a565b604082019050919050565b60006020820190508181036000830152611d0581611cc9565b9050919050565b7f5461736b20616c726561647920636f6d706c6574656400000000000000000000600082015250565b6000611d42601683611975565b9150611d4d82611d0c565b602082019050919050565b60006020820190508181036000830152611d7181611d35565b9050919050565b7f5375622d6163636f756e7420646f6573206e6f74206578697374000000000000600082015250565b6000611dae601a83611975565b9150611db982611d78565b602082019050919050565b60006020820190508181036000830152611ddd81611da1565b9050919050565b7f4e487b7100000000000000000000000000000000000000000000000000000000600052601160045260246000fd5b6000611e1e82611683565b9150611e2983611683565b9250828201905080821115611e4157611e40611de4565b5b92915050565b7f5061796d656e74206d7573742062652067726561746572207468616e20300000600082015250565b6000611e7d601e83611975565b9150611e8882611e47565b602082019050919050565b60006020820190508181036000830152611eac81611e70565b9050919050565b7f4e487b7100000000000000000000000000000000000000000000000000000000600052602260045260246000fd5b60006002820490506001821680611efa57607f821691505b602082108103611f0d57611f0c611eb3565b5b50919050565b60008190508160005260206000209050919050565b60006020601f8301049050919050565b600082821b905092915050565b600060088302611f757fffffffffffffffffffffffffffffffffffffffffffffffffffffffffffffffff82611f38565b611f7f8683611f38565b95508019841693508086168417925050509392505050565b6000819050919050565b6000611fbc611fb7611fb284611683565b611f97565b611683565b9050919050565b6000819050919050565b611fd683611fa1565b611fea611fe282611fc3565b848454611f45565b825550505050565b600090565b611fff611ff2565b61200a818484611fcd565b505050565b5b8181101561202e57612023600082611ff7565b600181019050612010565b5050565b601f8211156120735761204481611f13565b61204d84611f28565b8101602085101561205c578190505b61207061206885611f28565b83018261200f565b50505b505050565b600082821c905092915050565b600061209660001984600802612078565b1980831691505092915050565b60006120af8383612085565b9150826002028217905092915050565b6120c88261196a565b67ffffffffffffffff8111156120e1576120e0611714565b5b6120eb8254611ee2565b6120f6828285612032565b600060209050601f8311600181146121295760008415612117578287015190505b61212185826120a3565b865550612189565b601f19841661213786611f13565b60005b8281101561215f5784890151825560018201915060208501945060208101905061213a565b8683101561217c5784890151612178601f891682612085565b8355505b6001600288020188555050505b505050505050565b60006060820190506121a66000830186611913565b81810360208301526121b881856119b0565b90506121c76040830184611913565b949350505050565b7f4f6e6c792063726561746f722063616e2072656c65617365207061796d656e74600082015250565b6000612205602083611975565b9150612210826121cf565b602082019050919050565b60006020820190508181036000830152612234816121f8565b9050919050565b7f5461736b206e6f7420636f6d706c657465642079657400000000000000000000600082015250565b6000612271601683611975565b915061227c8261223b565b602082019050919050565b600060208201905081810360008301526122a081612264565b9050919050565b7f5061796d656e7420616c72656164792073656e74000000000000000000000000600082015250565b60006122dd601483611975565b91506122e8826122a7565b602082019050919050565b6000602082019050818103600083015261230c816122d0565b9050919050565b60006060820190506123286000830186611913565b61233560208301856119e9565b6123426040830184611913565b949350505050565b7f496e73756666696369656e742062616c616e6365000000000000000000000000600082015250565b6000612380601483611975565b915061238b8261234a565b602082019050919050565b600060208201905081810360008301526123af81612373565b9050919050565b60006123c182611683565b91506123cc83611683565b92508282039050818111156123e4576123e3611de4565b5b92915050565b7f5461736b20616c72656164792061737369676e65640000000000000000000000600082015250565b6000612420601583611975565b915061242b826123ea565b602082019050919050565b6000602082019050818103600083015261244f81612413565b9050919050565b600060408201905061246b6000830185611913565b61247860208301846119e9565b9392505050565b600061248a82611683565b91507fffffffffffffffffffffffffffffffffffffffffffffffffffffffffffffffff82036124bc576124bb611de4565b5b600182019050919050565b60006040820190506124dc60008301856119e9565b6124e96020830184611913565b939250505056fea2646970667358221220b77aa5ea565856ca44c8f67fa9ed9d16683925b6eb451d5c771d03ab4f36581164736f6c634300081b0033",
  "linkReferences": {},
  "deployedLinkReferences": {}
}