{
  "_format": "hh-sol-artifact-1",
  "contractName": "TaskProject",
  "sourceName": "contracts/TaskProject.sol",
  "abi": [
    {
      "anonymous": false,
      "inputs": [
        {
          "indexed": false,
          "internalType": "uint256",
          "name": "taskId",
          "type": "uint256"
        },
        {
          "indexed": false,
          "internalType": "address",
          "name": "recipient",
          "type": "address"
        },
        {
          "indexed": false,
          "internalType": "uint256",
          "name": "amount",
          "type": "uint256"
        }
      ],
      "name": "PaymentSent",
      "type": "event"
    },
    {
      "anonymous": false,
      "inputs": [
        {
          "indexed": false,
          "internalType": "uint256",
          "name": "taskId",
          "type": "uint256"
        },
        {
          "indexed": false,
          "internalType": "address",
          "name": "assignee",
          "type": "address"
        }
      ],
      "name": "TaskAssigned",
      "type": "event"
    },
    {
      "anonymous": false,
      "inputs": [
        {
          "indexed": false,
          "internalType": "uint256",
          "name": "taskId",
          "type": "uint256"
        }
      ],
      "name": "TaskCompleted",
      "type": "event"
    },
    {
      "anonymous": false,
      "inputs": [
        {
          "indexed": false,
          "internalType": "uint256",
          "name": "taskId",
          "type": "uint256"
        },
        {
          "indexed": false,
          "internalType": "string",
          "name": "description",
          "type": "string"
        },
        {
          "indexed": false,
          "internalType": "uint256",
          "name": "payment",
          "type": "uint256"
        }
      ],
      "name": "TaskCreated",
      "type": "event"
    },
    {
      "inputs": [
        {
          "internalType": "uint256",
          "name": "_taskId",
          "type": "uint256"
        }
      ],
      "name": "assignTask",
      "outputs": [],
      "stateMutability": "nonpayable",
      "type": "function"
    },
    {
      "inputs": [
        {
          "internalType": "uint256",
          "name": "_taskId",
          "type": "uint256"
        }
      ],
      "name": "completeTask",
      "outputs": [],
      "stateMutability": "nonpayable",
      "type": "function"
    },
    {
      "inputs": [
        {
          "internalType": "string",
          "name": "_description",
          "type": "string"
        }
      ],
      "name": "createTask",
      "outputs": [],
      "stateMutability": "payable",
      "type": "function"
    },
    {
      "inputs": [
        {
          "internalType": "uint256",
          "name": "_taskId",
          "type": "uint256"
        }
      ],
      "name": "getTask",
      "outputs": [
        {
          "internalType": "string",
          "name": "description",
          "type": "string"
        },
        {
          "internalType": "uint256",
          "name": "payment",
          "type": "uint256"
        },
        {
          "internalType": "address",
          "name": "creator",
          "type": "address"
        },
        {
          "internalType": "address",
          "name": "assignee",
          "type": "address"
        },
        {
          "internalType": "bool",
          "name": "completed",
          "type": "bool"
        },
        {
          "internalType": "bool",
          "name": "paid",
          "type": "bool"
        }
      ],
      "stateMutability": "view",
      "type": "function"
    },
    {
      "inputs": [
        {
          "internalType": "address",
          "name": "_user",
          "type": "address"
        }
      ],
      "name": "getUserTasks",
      "outputs": [
        {
          "internalType": "uint256[]",
          "name": "",
          "type": "uint256[]"
        }
      ],
      "stateMutability": "view",
      "type": "function"
    },
    {
      "inputs": [
        {
          "internalType": "uint256",
          "name": "_taskId",
          "type": "uint256"
        }
      ],
      "name": "releasePayment",
      "outputs": [],
      "stateMutability": "nonpayable",
      "type": "function"
    },
    {
      "inputs": [
        {
          "internalType": "uint256",
          "name": "",
          "type": "uint256"
        }
      ],
      "name": "tasks",
      "outputs": [
        {
          "internalType": "string",
          "name": "description",
          "type": "string"
        },
        {
          "internalType": "uint256",
          "name": "payment",
          "type": "uint256"
        },
        {
          "internalType": "address",
          "name": "creator",
          "type": "address"
        },
        {
          "internalType": "address",
          "name": "assignee",
          "type": "address"
        },
        {
          "internalType": "bool",
          "name": "completed",
          "type": "bool"
        },
        {
          "internalType": "bool",
          "name": "paid",
          "type": "bool"
        }
      ],
      "stateMutability": "view",
      "type": "function"
    },
    {
      "inputs": [
        {
          "internalType": "address",
          "name": "",
          "type": "address"
        },
        {
          "internalType": "uint256",
          "name": "",
          "type": "uint256"
        }
      ],
      "name": "userTasks",
      "outputs": [
        {
          "internalType": "uint256",
          "name": "",
          "type": "uint256"
        }
      ],
      "stateMutability": "view",
      "type": "function"
    }
  ],
  "bytecode": "0x6080604052348015600f57600080fd5b50611bb48061001f6000396000f3fe60806040526004361061007b5760003560e01c80638d9776721161004e5780638d9776721461014457806395d5766014610186578063b8573185146101c3578063e1e29558146101ec5761007b565b8063111002aa146100805780631d65e77e1461009c57806366873a55146100de57806388685cd91461011b575b600080fd5b61009a600480360381019061009591906110bb565b610215565b005b3480156100a857600080fd5b506100c360048036038101906100be919061113a565b610481565b6040516100d596959493929190611251565b60405180910390f35b3480156100ea57600080fd5b50610105600480360381019061010091906112e5565b61060f565b6040516101129190611325565b60405180910390f35b34801561012757600080fd5b50610142600480360381019061013d919061113a565b610640565b005b34801561015057600080fd5b5061016b6004803603810190610166919061113a565b6109b6565b60405161017d96959493929190611251565b60405180910390f35b34801561019257600080fd5b506101ad60048036038101906101a89190611340565b610ae4565b6040516101ba919061142b565b60405180910390f35b3480156101cf57600080fd5b506101ea60048036038101906101e5919061113a565b610b7b565b005b3480156101f857600080fd5b50610213600480360381019061020e919061113a565b610d7c565b005b60003411610258576040517f08c379a000000000000000000000000000000000000000000000000000000000815260040161024f90611499565b60405180910390fd5b60008080549050905060006040518060c001604052808481526020013481526020013373ffffffffffffffffffffffffffffffffffffffff168152602001600073ffffffffffffffffffffffffffffffffffffffff168152602001600015158152602001600015158152509080600181540180825580915050600190039060005260206000209060040201600090919091909150600082015181600001908161030191906116c5565b506020820151816001015560408201518160020160006101000a81548173ffffffffffffffffffffffffffffffffffffffff021916908373ffffffffffffffffffffffffffffffffffffffff16021790555060608201518160030160006101000a81548173ffffffffffffffffffffffffffffffffffffffff021916908373ffffffffffffffffffffffffffffffffffffffff16021790555060808201518160030160146101000a81548160ff02191690831515021790555060a08201518160030160156101000a81548160ff0219169083151502179055505050600160003373ffffffffffffffffffffffffffffffffffffffff1673ffffffffffffffffffffffffffffffffffffffff1681526020019081526020016000208190806001815401808255809150506001900390600052602060002001600090919091909150557f146b4b2e55f6b6a4a8ac8239494150cd5f96b163e2d019440f369714f4a31eb881833460405161047593929190611797565b60405180910390a15050565b60606000806000806000808054905087106104d1576040517f08c379a00000000000000000000000000000000000000000000000000000000081526004016104c890611821565b60405180910390fd5b60008088815481106104e6576104e5611841565b5b906000526020600020906004020190508060000181600101548260020160009054906101000a900473ffffffffffffffffffffffffffffffffffffffff168360030160009054906101000a900473ffffffffffffffffffffffffffffffffffffffff168460030160149054906101000a900460ff168560030160159054906101000a900460ff16858054610579906114e8565b80601f01602080910402602001604051908101604052809291908181526020018280546105a5906114e8565b80156105f25780601f106105c7576101008083540402835291602001916105f2565b820191906000526020600020905b8154815290600101906020018083116105d557829003601f168201915b505050505095509650965096509650965096505091939550919395565b6001602052816000526040600020818154811061062b57600080fd5b90600052602060002001600091509150505481565b6000805490508110610687576040517f08c379a000000000000000000000000000000000000000000000000000000000815260040161067e90611821565b60405180910390fd5b3373ffffffffffffffffffffffffffffffffffffffff16600082815481106106b2576106b1611841565b5b906000526020600020906004020160020160009054906101000a900473ffffffffffffffffffffffffffffffffffffffff1673ffffffffffffffffffffffffffffffffffffffff161461073a576040517f08c379a0000000000000000000000000000000000000000000000000000000008152600401610731906118bc565b60405180910390fd5b6000818154811061074e5761074d611841565b5b906000526020600020906004020160030160149054906101000a900460ff166107ac576040517f08c379a00000000000000000000000000000000000000000000000000000000081526004016107a390611928565b60405180910390fd5b600081815481106107c0576107bf611841565b5b906000526020600020906004020160030160159054906101000a900460ff161561081f576040517f08c379a000000000000000000000000000000000000000000000000000000000815260040161081690611994565b60405180910390fd5b60016000828154811061083557610834611841565b5b906000526020600020906004020160030160156101000a81548160ff0219169083151502179055506000818154811061087157610870611841565b5b906000526020600020906004020160030160009054906101000a900473ffffffffffffffffffffffffffffffffffffffff1673ffffffffffffffffffffffffffffffffffffffff166108fc600083815481106108d0576108cf611841565b5b9060005260206000209060040201600101549081150290604051600060405180830381858888f1935050505015801561090d573d6000803e3d6000fd5b507f952e5301753c5bc62cbfbdbe1b6553cd54796e01da9cfeaaf29921d6ede1a726816000838154811061094457610943611841565b5b906000526020600020906004020160030160009054906101000a900473ffffffffffffffffffffffffffffffffffffffff166000848154811061098a57610989611841565b5b9060005260206000209060040201600101546040516109ab939291906119b4565b60405180910390a150565b600081815481106109c657600080fd5b90600052602060002090600402016000915090508060000180546109e9906114e8565b80601f0160208091040260200160405190810160405280929190818152602001828054610a15906114e8565b8015610a625780601f10610a3757610100808354040283529160200191610a62565b820191906000526020600020905b815481529060010190602001808311610a4557829003601f168201915b5050505050908060010154908060020160009054906101000a900473ffffffffffffffffffffffffffffffffffffffff16908060030160009054906101000a900473ffffffffffffffffffffffffffffffffffffffff16908060030160149054906101000a900460ff16908060030160159054906101000a900460ff16905086565b6060600160008373ffffffffffffffffffffffffffffffffffffffff1673ffffffffffffffffffffffffffffffffffffffff168152602001908152602001600020805480602002602001604051908101604052809291908181526020018280548015610b6f57602002820191906000526020600020905b815481526020019060010190808311610b5b575b50505050509050919050565b6000805490508110610bc2576040517f08c379a0000000000000000000000000000000000000000000000000000000008152600401610bb990611821565b60405180910390fd5b600073ffffffffffffffffffffffffffffffffffffffff1660008281548110610bee57610bed611841565b5b906000526020600020906004020160030160009054906101000a900473ffffffffffffffffffffffffffffffffffffffff1673ffffffffffffffffffffffffffffffffffffffff1614610c76576040517f08c379a0000000000000000000000000000000000000000000000000000000008152600401610c6d90611a37565b60405180910390fd5b3360008281548110610c8b57610c8a611841565b5b906000526020600020906004020160030160006101000a81548173ffffffffffffffffffffffffffffffffffffffff021916908373ffffffffffffffffffffffffffffffffffffffff160217905550600160003373ffffffffffffffffffffffffffffffffffffffff1673ffffffffffffffffffffffffffffffffffffffff1681526020019081526020016000208190806001815401808255809150506001900390600052602060002001600090919091909150557f52476d55ecef5cf13caa64038f297fe6bbf865d9584a98b8722a15a6d5db128f8133604051610d71929190611a57565b60405180910390a150565b6000805490508110610dc3576040517f08c379a0000000000000000000000000000000000000000000000000000000008152600401610dba90611821565b60405180910390fd5b3373ffffffffffffffffffffffffffffffffffffffff1660008281548110610dee57610ded611841565b5b906000526020600020906004020160030160009054906101000a900473ffffffffffffffffffffffffffffffffffffffff1673ffffffffffffffffffffffffffffffffffffffff1614610e76576040517f08c379a0000000000000000000000000000000000000000000000000000000008152600401610e6d90611af2565b60405180910390fd5b60008181548110610e8a57610e89611841565b5b906000526020600020906004020160030160149054906101000a900460ff1615610ee9576040517f08c379a0000000000000000000000000000000000000000000000000000000008152600401610ee090611b5e565b60405180910390fd5b600160008281548110610eff57610efe611841565b5b906000526020600020906004020160030160146101000a81548160ff0219169083151502179055507fc1fa7142cfb933d0855114a3bffde296944c30b727f297c14d0db4d553d3a5c781604051610f569190611325565b60405180910390a150565b6000604051905090565b600080fd5b600080fd5b600080fd5b600080fd5b6000601f19601f8301169050919050565b7f4e487b7100000000000000000000000000000000000000000000000000000000600052604160045260246000fd5b610fc882610f7f565b810181811067ffffffffffffffff82111715610fe757610fe6610f90565b5b80604052505050565b6000610ffa610f61565b90506110068282610fbf565b919050565b600067ffffffffffffffff82111561102657611025610f90565b5b61102f82610f7f565b9050602081019050919050565b82818337600083830152505050565b600061105e6110598461100b565b610ff0565b90508281526020810184848401111561107a57611079610f7a565b5b61108584828561103c565b509392505050565b600082601f8301126110a2576110a1610f75565b5b81356110b284826020860161104b565b91505092915050565b6000602082840312156110d1576110d0610f6b565b5b600082013567ffffffffffffffff8111156110ef576110ee610f70565b5b6110fb8482850161108d565b91505092915050565b6000819050919050565b61111781611104565b811461112257600080fd5b50565b6000813590506111348161110e565b92915050565b6000602082840312156111505761114f610f6b565b5b600061115e84828501611125565b91505092915050565b600081519050919050565b600082825260208201905092915050565b60005b838110156111a1578082015181840152602081019050611186565b60008484015250505050565b60006111b882611167565b6111c28185611172565b93506111d2818560208601611183565b6111db81610f7f565b840191505092915050565b6111ef81611104565b82525050565b600073ffffffffffffffffffffffffffffffffffffffff82169050919050565b6000611220826111f5565b9050919050565b61123081611215565b82525050565b60008115159050919050565b61124b81611236565b82525050565b600060c082019050818103600083015261126b81896111ad565b905061127a60208301886111e6565b6112876040830187611227565b6112946060830186611227565b6112a16080830185611242565b6112ae60a0830184611242565b979650505050505050565b6112c281611215565b81146112cd57600080fd5b50565b6000813590506112df816112b9565b92915050565b600080604083850312156112fc576112fb610f6b565b5b600061130a858286016112d0565b925050602061131b85828601611125565b9150509250929050565b600060208201905061133a60008301846111e6565b92915050565b60006020828403121561135657611355610f6b565b5b6000611364848285016112d0565b91505092915050565b600081519050919050565b600082825260208201905092915050565b6000819050602082019050919050565b6113a281611104565b82525050565b60006113b48383611399565b60208301905092915050565b6000602082019050919050565b60006113d88261136d565b6113e28185611378565b93506113ed83611389565b8060005b8381101561141e57815161140588826113a8565b9750611410836113c0565b9250506001810190506113f1565b5085935050505092915050565b6000602082019050818103600083015261144581846113cd565b905092915050565b7f5061796d656e74206d7573742062652067726561746572207468616e20300000600082015250565b6000611483601e83611172565b915061148e8261144d565b602082019050919050565b600060208201905081810360008301526114b281611476565b9050919050565b7f4e487b7100000000000000000000000000000000000000000000000000000000600052602260045260246000fd5b6000600282049050600182168061150057607f821691505b602082108103611513576115126114b9565b5b50919050565b60008190508160005260206000209050919050565b60006020601f8301049050919050565b600082821b905092915050565b60006008830261157b7fffffffffffffffffffffffffffffffffffffffffffffffffffffffffffffffff8261153e565b611585868361153e565b95508019841693508086168417925050509392505050565b6000819050919050565b60006115c26115bd6115b884611104565b61159d565b611104565b9050919050565b6000819050919050565b6115dc836115a7565b6115f06115e8826115c9565b84845461154b565b825550505050565b600090565b6116056115f8565b6116108184846115d3565b505050565b5b81811015611634576116296000826115fd565b600181019050611616565b5050565b601f8211156116795761164a81611519565b6116538461152e565b81016020851015611662578190505b61167661166e8561152e565b830182611615565b50505b505050565b600082821c905092915050565b600061169c6000198460080261167e565b1980831691505092915050565b60006116b5838361168b565b9150826002028217905092915050565b6116ce82611167565b67ffffffffffffffff8111156116e7576116e6610f90565b5b6116f182546114e8565b6116fc828285611638565b600060209050601f83116001811461172f576000841561171d578287015190505b61172785826116a9565b86555061178f565b601f19841661173d86611519565b60005b8281101561176557848901518255600182019150602085019450602081019050611740565b86831015611782578489015161177e601f89168261168b565b8355505b6001600288020188555050505b505050505050565b60006060820190506117ac60008301866111e6565b81810360208301526117be81856111ad565b90506117cd60408301846111e6565b949350505050565b7f5461736b20646f6573206e6f7420657869737400000000000000000000000000600082015250565b600061180b601383611172565b9150611816826117d5565b602082019050919050565b6000602082019050818103600083015261183a816117fe565b9050919050565b7f4e487b7100000000000000000000000000000000000000000000000000000000600052603260045260246000fd5b7f4f6e6c792063726561746f722063616e2072656c65617365207061796d656e74600082015250565b60006118a6602083611172565b91506118b182611870565b602082019050919050565b600060208201905081810360008301526118d581611899565b9050919050565b7f5461736b206e6f7420636f6d706c657465642079657400000000000000000000600082015250565b6000611912601683611172565b915061191d826118dc565b602082019050919050565b6000602082019050818103600083015261194181611905565b9050919050565b7f5061796d656e7420616c72656164792073656e74000000000000000000000000600082015250565b600061197e601483611172565b915061198982611948565b602082019050919050565b600060208201905081810360008301526119ad81611971565b9050919050565b60006060820190506119c960008301866111e6565b6119d66020830185611227565b6119e360408301846111e6565b949350505050565b7f5461736b20616c72656164792061737369676e65640000000000000000000000600082015250565b6000611a21601583611172565b9150611a2c826119eb565b602082019050919050565b60006020820190508181036000830152611a5081611a14565b9050919050565b6000604082019050611a6c60008301856111e6565b611a796020830184611227565b9392505050565b7f4f6e6c792061737369676e65652063616e20636f6d706c65746520746865207460008201527f61736b0000000000000000000000000000000000000000000000000000000000602082015250565b6000611adc602383611172565b9150611ae782611a80565b604082019050919050565b60006020820190508181036000830152611b0b81611acf565b9050919050565b7f5461736b20616c726561647920636f6d706c6574656400000000000000000000600082015250565b6000611b48601683611172565b9150611b5382611b12565b602082019050919050565b60006020820190508181036000830152611b7781611b3b565b905091905056fea264697066735822122000724d2df6aef8170783552bb71c4132a4ec3d91db5acde52cb89355314237cc64736f6c634300081b0033",
  "linkReferences": {},
  "deployedLinkReferences": {}
}